{
  "_format": "hh-sol-artifact-1",
  "contractName": "TodoList",
  "sourceName": "contracts/Lock.sol",
  "abi": [
    {
      "inputs": [],
      "stateMutability": "nonpayable",
      "type": "constructor"
    },
    {
      "inputs": [
        {
          "internalType": "string",
          "name": "_content",
          "type": "string"
        }
      ],
      "name": "createTodoList",
      "outputs": [],
      "stateMutability": "nonpayable",
      "type": "function"
    },
    {
      "inputs": [],
      "name": "getBalance",
      "outputs": [
        {
          "internalType": "uint256",
          "name": "",
          "type": "uint256"
        }
      ],
      "stateMutability": "view",
      "type": "function"
    },
    {
      "inputs": [],
      "name": "getOwner",
      "outputs": [
        {
          "internalType": "address",
          "name": "",
          "type": "address"
        }
      ],
      "stateMutability": "view",
      "type": "function"
    },
    {
      "inputs": [
        {
          "internalType": "address",
          "name": "_owner",
          "type": "address"
        }
      ],
      "name": "getTodoList",
      "outputs": [
        {
          "components": [
            {
              "internalType": "address",
              "name": "author",
              "type": "address"
            },
            {
              "internalType": "string",
              "name": "content",
              "type": "string"
            },
            {
              "internalType": "bool",
              "name": "completed",
              "type": "bool"
            },
            {
              "internalType": "uint256",
              "name": "id",
              "type": "uint256"
            }
          ],
          "internalType": "struct TodoList.ToList[]",
          "name": "",
          "type": "tuple[]"
        }
      ],
      "stateMutability": "view",
      "type": "function"
    },
    {
      "inputs": [
        {
          "internalType": "address",
          "name": "",
          "type": "address"
        },
        {
          "internalType": "uint256",
          "name": "",
          "type": "uint256"
        }
      ],
      "name": "lists",
      "outputs": [
        {
          "internalType": "address",
          "name": "author",
          "type": "address"
        },
        {
          "internalType": "string",
          "name": "content",
          "type": "string"
        },
        {
          "internalType": "bool",
          "name": "completed",
          "type": "bool"
        },
        {
          "internalType": "uint256",
          "name": "id",
          "type": "uint256"
        }
      ],
      "stateMutability": "view",
      "type": "function"
    },
    {
      "inputs": [],
      "name": "owner",
      "outputs": [
        {
          "internalType": "address",
          "name": "",
          "type": "address"
        }
      ],
      "stateMutability": "view",
      "type": "function"
    },
    {
      "inputs": [
        {
          "internalType": "address",
          "name": "author",
          "type": "address"
        },
        {
          "internalType": "uint256",
          "name": "_id",
          "type": "uint256"
        }
      ],
      "name": "toggleList",
      "outputs": [],
      "stateMutability": "nonpayable",
      "type": "function"
    }
  ],
  "bytecode": "0x6080604052348015600f57600080fd5b50336000806101000a81548173ffffffffffffffffffffffffffffffffffffffff021916908373ffffffffffffffffffffffffffffffffffffffff16021790555061114e8061005f6000396000f3fe608060405234801561001057600080fd5b506004361061007d5760003560e01c8063423cdebe1161005b578063423cdebe146100d8578063893d20e8146101085780638da5cb5b14610126578063c50a2def146101445761007d565b806306b2fc201461008257806312065fe01461009e5780633b1d7363146100bc575b600080fd5b61009c600480360381019061009791906108ab565b610177565b005b6100a6610395565b6040516100b391906108fa565b60405180910390f35b6100d660048036038101906100d19190610a5b565b6103b4565b005b6100f260048036038101906100ed9190610aa4565b61052a565b6040516100ff9190610cae565b60405180910390f35b6101106106d5565b60405161011d9190610cdf565b60405180910390f35b61012e6106dd565b60405161013b9190610cdf565b60405180910390f35b61015e600480360381019061015991906108ab565b610701565b60405161016e9493929190610d53565b60405180910390f35b80600160008473ffffffffffffffffffffffffffffffffffffffff1673ffffffffffffffffffffffffffffffffffffffff16815260200190815260200160002082815481106101c9576101c8610d9f565b5b9060005260206000209060040201600301541461021b576040517f08c379a000000000000000000000000000000000000000000000000000000000815260040161021290610e1a565b60405180910390fd5b60001515600160008473ffffffffffffffffffffffffffffffffffffffff1673ffffffffffffffffffffffffffffffffffffffff16815260200190815260200160002082815481106102705761026f610d9f565b5b906000526020600020906004020160020160009054906101000a900460ff161515036103155760018060008473ffffffffffffffffffffffffffffffffffffffff1673ffffffffffffffffffffffffffffffffffffffff16815260200190815260200160002082815481106102e8576102e7610d9f565b5b906000526020600020906004020160020160006101000a81548160ff021916908315150217905550610391565b6000600160008473ffffffffffffffffffffffffffffffffffffffff1673ffffffffffffffffffffffffffffffffffffffff168152602001908152602001600020828154811061036857610367610d9f565b5b906000526020600020906004020160020160006101000a81548160ff0219169083151502179055505b5050565b60003373ffffffffffffffffffffffffffffffffffffffff1631905090565b600060405180608001604052803373ffffffffffffffffffffffffffffffffffffffff168152602001838152602001600015158152602001600160003373ffffffffffffffffffffffffffffffffffffffff1673ffffffffffffffffffffffffffffffffffffffff168152602001908152602001600020805490508152509050600160003373ffffffffffffffffffffffffffffffffffffffff1673ffffffffffffffffffffffffffffffffffffffff16815260200190815260200160002081908060018154018082558091505060019003906000526020600020906004020160009091909190915060008201518160000160006101000a81548173ffffffffffffffffffffffffffffffffffffffff021916908373ffffffffffffffffffffffffffffffffffffffff16021790555060208201518160010190816104f99190611046565b5060408201518160020160006101000a81548160ff0219169083151502179055506060820151816003015550505050565b6060600160008373ffffffffffffffffffffffffffffffffffffffff1673ffffffffffffffffffffffffffffffffffffffff168152602001908152602001600020805480602002602001604051908101604052809291908181526020016000905b828210156106ca57838290600052602060002090600402016040518060800160405290816000820160009054906101000a900473ffffffffffffffffffffffffffffffffffffffff1673ffffffffffffffffffffffffffffffffffffffff1673ffffffffffffffffffffffffffffffffffffffff16815260200160018201805461061490610e69565b80601f016020809104026020016040519081016040528092919081815260200182805461064090610e69565b801561068d5780601f106106625761010080835404028352916020019161068d565b820191906000526020600020905b81548152906001019060200180831161067057829003601f168201915b505050505081526020016002820160009054906101000a900460ff161515151581526020016003820154815250508152602001906001019061058b565b505050509050919050565b600033905090565b60008054906101000a900473ffffffffffffffffffffffffffffffffffffffff1681565b6001602052816000526040600020818154811061071d57600080fd5b9060005260206000209060040201600091509150508060000160009054906101000a900473ffffffffffffffffffffffffffffffffffffffff169080600101805461076790610e69565b80601f016020809104026020016040519081016040528092919081815260200182805461079390610e69565b80156107e05780601f106107b5576101008083540402835291602001916107e0565b820191906000526020600020905b8154815290600101906020018083116107c357829003601f168201915b5050505050908060020160009054906101000a900460ff16908060030154905084565b6000604051905090565b600080fd5b600080fd5b600073ffffffffffffffffffffffffffffffffffffffff82169050919050565b600061084282610817565b9050919050565b61085281610837565b811461085d57600080fd5b50565b60008135905061086f81610849565b92915050565b6000819050919050565b61088881610875565b811461089357600080fd5b50565b6000813590506108a58161087f565b92915050565b600080604083850312156108c2576108c161080d565b5b60006108d085828601610860565b92505060206108e185828601610896565b9150509250929050565b6108f481610875565b82525050565b600060208201905061090f60008301846108eb565b92915050565b600080fd5b600080fd5b6000601f19601f8301169050919050565b7f4e487b7100000000000000000000000000000000000000000000000000000000600052604160045260246000fd5b6109688261091f565b810181811067ffffffffffffffff8211171561098757610986610930565b5b80604052505050565b600061099a610803565b90506109a6828261095f565b919050565b600067ffffffffffffffff8211156109c6576109c5610930565b5b6109cf8261091f565b9050602081019050919050565b82818337600083830152505050565b60006109fe6109f9846109ab565b610990565b905082815260208101848484011115610a1a57610a1961091a565b5b610a258482856109dc565b509392505050565b600082601f830112610a4257610a41610915565b5b8135610a528482602086016109eb565b91505092915050565b600060208284031215610a7157610a7061080d565b5b600082013567ffffffffffffffff811115610a8f57610a8e610812565b5b610a9b84828501610a2d565b91505092915050565b600060208284031215610aba57610ab961080d565b5b6000610ac884828501610860565b91505092915050565b600081519050919050565b600082825260208201905092915050565b6000819050602082019050919050565b610b0681610837565b82525050565b600081519050919050565b600082825260208201905092915050565b60005b83811015610b46578082015181840152602081019050610b2b565b60008484015250505050565b6000610b5d82610b0c565b610b678185610b17565b9350610b77818560208601610b28565b610b808161091f565b840191505092915050565b60008115159050919050565b610ba081610b8b565b82525050565b610baf81610875565b82525050565b6000608083016000830151610bcd6000860182610afd565b5060208301518482036020860152610be58282610b52565b9150506040830151610bfa6040860182610b97565b506060830151610c0d6060860182610ba6565b508091505092915050565b6000610c248383610bb5565b905092915050565b6000602082019050919050565b6000610c4482610ad1565b610c4e8185610adc565b935083602082028501610c6085610aed565b8060005b85811015610c9c5784840389528151610c7d8582610c18565b9450610c8883610c2c565b925060208a01995050600181019050610c64565b50829750879550505050505092915050565b60006020820190508181036000830152610cc88184610c39565b905092915050565b610cd981610837565b82525050565b6000602082019050610cf46000830184610cd0565b92915050565b600082825260208201905092915050565b6000610d1682610b0c565b610d208185610cfa565b9350610d30818560208601610b28565b610d398161091f565b840191505092915050565b610d4d81610b8b565b82525050565b6000608082019050610d686000830187610cd0565b8181036020830152610d7a8186610d0b565b9050610d896040830185610d44565b610d9660608301846108eb565b95945050505050565b7f4e487b7100000000000000000000000000000000000000000000000000000000600052603260045260246000fd5b7f546865206c69737420646f6573206e6f74206578697374210000000000000000600082015250565b6000610e04601883610cfa565b9150610e0f82610dce565b602082019050919050565b60006020820190508181036000830152610e3381610df7565b9050919050565b7f4e487b7100000000000000000000000000000000000000000000000000000000600052602260045260246000fd5b60006002820490506001821680610e8157607f821691505b602082108103610e9457610e93610e3a565b5b50919050565b60008190508160005260206000209050919050565b60006020601f8301049050919050565b600082821b905092915050565b600060088302610efc7fffffffffffffffffffffffffffffffffffffffffffffffffffffffffffffffff82610ebf565b610f068683610ebf565b95508019841693508086168417925050509392505050565b6000819050919050565b6000610f43610f3e610f3984610875565b610f1e565b610875565b9050919050565b6000819050919050565b610f5d83610f28565b610f71610f6982610f4a565b848454610ecc565b825550505050565b600090565b610f86610f79565b610f91818484610f54565b505050565b5b81811015610fb557610faa600082610f7e565b600181019050610f97565b5050565b601f821115610ffa57610fcb81610e9a565b610fd484610eaf565b81016020851015610fe3578190505b610ff7610fef85610eaf565b830182610f96565b50505b505050565b600082821c905092915050565b600061101d60001984600802610fff565b1980831691505092915050565b6000611036838361100c565b9150826002028217905092915050565b61104f82610b0c565b67ffffffffffffffff81111561106857611067610930565b5b6110728254610e69565b61107d828285610fb9565b600060209050601f8311600181146110b0576000841561109e578287015190505b6110a8858261102a565b865550611110565b601f1984166110be86610e9a565b60005b828110156110e6578489015182556001820191506020850194506020810190506110c1565b8683101561110357848901516110ff601f89168261100c565b8355505b6001600288020188555050505b50505050505056fea264697066735822122045419895bf0493346bdd44656dc2f849b96d4026e35ffd24ecaac09e4248018664736f6c634300081c0033",
  "linkReferences": {},
  "deployedLinkReferences": {}
}