{
  "_format": "hh-sol-artifact-1",
  "contractName": "TodoList",
  "sourceName": "contracts/Lock.sol",
  "abi": [
    {
      "inputs": [],
      "stateMutability": "nonpayable",
      "type": "constructor"
    },
    {
      "inputs": [
        {
          "internalType": "string",
          "name": "_content",
          "type": "string"
        }
      ],
      "name": "createTodoList",
      "outputs": [],
      "stateMutability": "nonpayable",
      "type": "function"
    },
    {
      "inputs": [],
      "name": "getBalance",
      "outputs": [
        {
          "internalType": "uint256",
          "name": "",
          "type": "uint256"
        }
      ],
      "stateMutability": "view",
      "type": "function"
    },
    {
      "inputs": [],
      "name": "getOwner",
      "outputs": [
        {
          "internalType": "address",
          "name": "",
          "type": "address"
        }
      ],
      "stateMutability": "view",
      "type": "function"
    },
    {
      "inputs": [
        {
          "internalType": "address",
          "name": "_owner",
          "type": "address"
        }
      ],
      "name": "getTodoList",
      "outputs": [
        {
          "components": [
            {
              "internalType": "address",
              "name": "author",
              "type": "address"
            },
            {
              "internalType": "string",
              "name": "content",
              "type": "string"
            },
            {
              "internalType": "bool",
              "name": "completed",
              "type": "bool"
            },
            {
              "internalType": "uint256",
              "name": "id",
              "type": "uint256"
            }
          ],
          "internalType": "struct TodoList.ToList[]",
          "name": "",
          "type": "tuple[]"
        }
      ],
      "stateMutability": "view",
      "type": "function"
    },
    {
      "inputs": [
        {
          "internalType": "address",
          "name": "",
          "type": "address"
        },
        {
          "internalType": "uint256",
          "name": "",
          "type": "uint256"
        }
      ],
      "name": "lists",
      "outputs": [
        {
          "internalType": "address",
          "name": "author",
          "type": "address"
        },
        {
          "internalType": "string",
          "name": "content",
          "type": "string"
        },
        {
          "internalType": "bool",
          "name": "completed",
          "type": "bool"
        },
        {
          "internalType": "uint256",
          "name": "id",
          "type": "uint256"
        }
      ],
      "stateMutability": "view",
      "type": "function"
    },
    {
      "inputs": [],
      "name": "owner",
      "outputs": [
        {
          "internalType": "address",
          "name": "",
          "type": "address"
        }
      ],
      "stateMutability": "view",
      "type": "function"
    },
    {
      "inputs": [
        {
          "internalType": "address",
          "name": "author",
          "type": "address"
        },
        {
          "internalType": "uint256",
          "name": "_id",
          "type": "uint256"
        }
      ],
      "name": "toggleList",
      "outputs": [],
      "stateMutability": "nonpayable",
      "type": "function"
    }
  ],
  "bytecode": "0x6080604052348015600f57600080fd5b50336000806101000a81548173ffffffffffffffffffffffffffffffffffffffff021916908373ffffffffffffffffffffffffffffffffffffffff16021790555061116f8061005f6000396000f3fe608060405234801561001057600080fd5b506004361061007d5760003560e01c8063423cdebe1161005b578063423cdebe146100d8578063893d20e8146101085780638da5cb5b14610126578063c50a2def146101445761007d565b806306b2fc201461008257806312065fe01461009e5780633b1d7363146100bc575b600080fd5b61009c600480360381019061009791906108cc565b610177565b005b6100a6610395565b6040516100b3919061091b565b60405180910390f35b6100d660048036038101906100d19190610a7c565b6103b4565b005b6100f260048036038101906100ed9190610ac5565b61052a565b6040516100ff9190610ccf565b60405180910390f35b6101106106d5565b60405161011d9190610d00565b60405180910390f35b61012e6106fe565b60405161013b9190610d00565b60405180910390f35b61015e600480360381019061015991906108cc565b610722565b60405161016e9493929190610d74565b60405180910390f35b80600160008473ffffffffffffffffffffffffffffffffffffffff1673ffffffffffffffffffffffffffffffffffffffff16815260200190815260200160002082815481106101c9576101c8610dc0565b5b9060005260206000209060040201600301541461021b576040517f08c379a000000000000000000000000000000000000000000000000000000000815260040161021290610e3b565b60405180910390fd5b60001515600160008473ffffffffffffffffffffffffffffffffffffffff1673ffffffffffffffffffffffffffffffffffffffff16815260200190815260200160002082815481106102705761026f610dc0565b5b906000526020600020906004020160020160009054906101000a900460ff161515036103155760018060008473ffffffffffffffffffffffffffffffffffffffff1673ffffffffffffffffffffffffffffffffffffffff16815260200190815260200160002082815481106102e8576102e7610dc0565b5b906000526020600020906004020160020160006101000a81548160ff021916908315150217905550610391565b6000600160008473ffffffffffffffffffffffffffffffffffffffff1673ffffffffffffffffffffffffffffffffffffffff168152602001908152602001600020828154811061036857610367610dc0565b5b906000526020600020906004020160020160006101000a81548160ff0219169083151502179055505b5050565b60003373ffffffffffffffffffffffffffffffffffffffff1631905090565b600060405180608001604052803373ffffffffffffffffffffffffffffffffffffffff168152602001838152602001600015158152602001600160003373ffffffffffffffffffffffffffffffffffffffff1673ffffffffffffffffffffffffffffffffffffffff168152602001908152602001600020805490508152509050600160003373ffffffffffffffffffffffffffffffffffffffff1673ffffffffffffffffffffffffffffffffffffffff16815260200190815260200160002081908060018154018082558091505060019003906000526020600020906004020160009091909190915060008201518160000160006101000a81548173ffffffffffffffffffffffffffffffffffffffff021916908373ffffffffffffffffffffffffffffffffffffffff16021790555060208201518160010190816104f99190611067565b5060408201518160020160006101000a81548160ff0219169083151502179055506060820151816003015550505050565b6060600160008373ffffffffffffffffffffffffffffffffffffffff1673ffffffffffffffffffffffffffffffffffffffff168152602001908152602001600020805480602002602001604051908101604052809291908181526020016000905b828210156106ca57838290600052602060002090600402016040518060800160405290816000820160009054906101000a900473ffffffffffffffffffffffffffffffffffffffff1673ffffffffffffffffffffffffffffffffffffffff1673ffffffffffffffffffffffffffffffffffffffff16815260200160018201805461061490610e8a565b80601f016020809104026020016040519081016040528092919081815260200182805461064090610e8a565b801561068d5780601f106106625761010080835404028352916020019161068d565b820191906000526020600020905b81548152906001019060200180831161067057829003601f168201915b505050505081526020016002820160009054906101000a900460ff161515151581526020016003820154815250508152602001906001019061058b565b505050509050919050565b60008060009054906101000a900473ffffffffffffffffffffffffffffffffffffffff16905090565b60008054906101000a900473ffffffffffffffffffffffffffffffffffffffff1681565b6001602052816000526040600020818154811061073e57600080fd5b9060005260206000209060040201600091509150508060000160009054906101000a900473ffffffffffffffffffffffffffffffffffffffff169080600101805461078890610e8a565b80601f01602080910402602001604051908101604052809291908181526020018280546107b490610e8a565b80156108015780601f106107d657610100808354040283529160200191610801565b820191906000526020600020905b8154815290600101906020018083116107e457829003601f168201915b5050505050908060020160009054906101000a900460ff16908060030154905084565b6000604051905090565b600080fd5b600080fd5b600073ffffffffffffffffffffffffffffffffffffffff82169050919050565b600061086382610838565b9050919050565b61087381610858565b811461087e57600080fd5b50565b6000813590506108908161086a565b92915050565b6000819050919050565b6108a981610896565b81146108b457600080fd5b50565b6000813590506108c6816108a0565b92915050565b600080604083850312156108e3576108e261082e565b5b60006108f185828601610881565b9250506020610902858286016108b7565b9150509250929050565b61091581610896565b82525050565b6000602082019050610930600083018461090c565b92915050565b600080fd5b600080fd5b6000601f19601f8301169050919050565b7f4e487b7100000000000000000000000000000000000000000000000000000000600052604160045260246000fd5b61098982610940565b810181811067ffffffffffffffff821117156109a8576109a7610951565b5b80604052505050565b60006109bb610824565b90506109c78282610980565b919050565b600067ffffffffffffffff8211156109e7576109e6610951565b5b6109f082610940565b9050602081019050919050565b82818337600083830152505050565b6000610a1f610a1a846109cc565b6109b1565b905082815260208101848484011115610a3b57610a3a61093b565b5b610a468482856109fd565b509392505050565b600082601f830112610a6357610a62610936565b5b8135610a73848260208601610a0c565b91505092915050565b600060208284031215610a9257610a9161082e565b5b600082013567ffffffffffffffff811115610ab057610aaf610833565b5b610abc84828501610a4e565b91505092915050565b600060208284031215610adb57610ada61082e565b5b6000610ae984828501610881565b91505092915050565b600081519050919050565b600082825260208201905092915050565b6000819050602082019050919050565b610b2781610858565b82525050565b600081519050919050565b600082825260208201905092915050565b60005b83811015610b67578082015181840152602081019050610b4c565b60008484015250505050565b6000610b7e82610b2d565b610b888185610b38565b9350610b98818560208601610b49565b610ba181610940565b840191505092915050565b60008115159050919050565b610bc181610bac565b82525050565b610bd081610896565b82525050565b6000608083016000830151610bee6000860182610b1e565b5060208301518482036020860152610c068282610b73565b9150506040830151610c1b6040860182610bb8565b506060830151610c2e6060860182610bc7565b508091505092915050565b6000610c458383610bd6565b905092915050565b6000602082019050919050565b6000610c6582610af2565b610c6f8185610afd565b935083602082028501610c8185610b0e565b8060005b85811015610cbd5784840389528151610c9e8582610c39565b9450610ca983610c4d565b925060208a01995050600181019050610c85565b50829750879550505050505092915050565b60006020820190508181036000830152610ce98184610c5a565b905092915050565b610cfa81610858565b82525050565b6000602082019050610d156000830184610cf1565b92915050565b600082825260208201905092915050565b6000610d3782610b2d565b610d418185610d1b565b9350610d51818560208601610b49565b610d5a81610940565b840191505092915050565b610d6e81610bac565b82525050565b6000608082019050610d896000830187610cf1565b8181036020830152610d9b8186610d2c565b9050610daa6040830185610d65565b610db7606083018461090c565b95945050505050565b7f4e487b7100000000000000000000000000000000000000000000000000000000600052603260045260246000fd5b7f546865206c69737420646f6573206e6f74206578697374210000000000000000600082015250565b6000610e25601883610d1b565b9150610e3082610def565b602082019050919050565b60006020820190508181036000830152610e5481610e18565b9050919050565b7f4e487b7100000000000000000000000000000000000000000000000000000000600052602260045260246000fd5b60006002820490506001821680610ea257607f821691505b602082108103610eb557610eb4610e5b565b5b50919050565b60008190508160005260206000209050919050565b60006020601f8301049050919050565b600082821b905092915050565b600060088302610f1d7fffffffffffffffffffffffffffffffffffffffffffffffffffffffffffffffff82610ee0565b610f278683610ee0565b95508019841693508086168417925050509392505050565b6000819050919050565b6000610f64610f5f610f5a84610896565b610f3f565b610896565b9050919050565b6000819050919050565b610f7e83610f49565b610f92610f8a82610f6b565b848454610eed565b825550505050565b600090565b610fa7610f9a565b610fb2818484610f75565b505050565b5b81811015610fd657610fcb600082610f9f565b600181019050610fb8565b5050565b601f82111561101b57610fec81610ebb565b610ff584610ed0565b81016020851015611004578190505b61101861101085610ed0565b830182610fb7565b50505b505050565b600082821c905092915050565b600061103e60001984600802611020565b1980831691505092915050565b6000611057838361102d565b9150826002028217905092915050565b61107082610b2d565b67ffffffffffffffff81111561108957611088610951565b5b6110938254610e8a565b61109e828285610fda565b600060209050601f8311600181146110d157600084156110bf578287015190505b6110c9858261104b565b865550611131565b601f1984166110df86610ebb565b60005b82811015611107578489015182556001820191506020850194506020810190506110e2565b868310156111245784890151611120601f89168261102d565b8355505b6001600288020188555050505b50505050505056fea26469706673582212203d63d56addc57d4f203861091a848a04a7357d5349c0766c49252b1a9e42b2ad64736f6c634300081c0033",
  "linkReferences": {},
  "deployedLinkReferences": {}
}